:030000000206A055
:0C06A000787FE4F6D8FD7581590206E76A
:1009E10001291E012200012130014B00C100C1017A
:1009F100013000014800012E00012A0001490001D7
:100A01002F000345000031014A00012700012800A1
:070A1100012B00022C000084
:100A4900759850758921758DFF758BFF438780D205
:100A59008ED2ACD2AB758CFE758A0CD2A9759ADA96
:0E0A6900759CE8758E1075AF01D28CD2AF224D
:1009A6008E088F09750A00750B00750C00750D0011
:1009B600C3E50B9509E50A9508501FC3E50D947C20
:1009C600E50C9400500A050DE50D7002050C80EB50
:0B09D600050BE50B7002050A80D6221D
:100A1900C2C47F407E9C1209A6D2C47F407E9C122C
:100A290009A6C2C47F407E9C1209A6D2C47F407E1B
:100A39009C1209A6C2C47F407E9C1209A6D2C42278
:0C000E00C2C47FD07E071209A6D2C42213
:100878008F0E8D0F8B1075300075995AE53060FC1E
:100888007530007599A5E53060FC753000759905DF
:10089800E53060FC753000759982E53060FC753094
:1008A80000850E99E53060FC753000850F99E530BC
:1008B80060FC753000851099E53060FC7530008566
:0A08C8001199E53060FC7530002244
:100A77007530007599AAE53060FC7530007599BB33
:100A8700E53060FC753000759901E53060FC753024
:0C0A970000759905E53060FC7530002208
:100AA3007530007599AAE53060FC7530007599BB07
:100AB300E53060FC753000759901E53060FC7530F8
:0C0AC30000759901E53060FC75300022E0
:10092300E52975F00A120188FFEFC454F0FFE529A9
:1009330075F00A120188AEF0EE2FF515E52275F079
:100943000A120188FFEFC454F0FFE52275F00A1282
:100953000188AEF0EE2FF516851611AB157D507F8D
:050963000012087822DB
:10081700C2011522AF22C3EF64809480504C152982
:10082700AF29D3EF64809480401175223B8529114D
:100837007B007D407F00120878802F754B00120ADD
:1008470019D200759BA07511007B007D307F0012C7
:10085700087875111E7B007D407F0012087875119E
:10086700007B307D507F0012087820000312092397
:01087700225E
:1007B000754C00754D007511007B007D307F001277
:1007C000087875111E7B007D407F00120878751136
:1007D000007B307D507F00120878E54860FC75484A
:1007E00000AF26EF3395E0FEEF7F00FEAD25ED3341
:1007F00095E0FCEF2DF54DEE3CF54CE54D854CF0CC
:1008000012024A080B0000000007DA8523211200BB
:070810000E2280C680C42205
:1005E700754E00754F0075291E752200754B0075F5
:1005F7002A0075490075111E7B007D407F00120897
:10060700787511007B307D507F0012087830010328
:10061700120817300011C20075291E752200754B8C
:1006270000752A00754900E54860E2754800AF2665
:10063700EF3395E0FEEF7F00FEAD25ED3395E0FC4F
:10064700EF2DFFEE3CFE754E008F4FE54F854EF0C8
:1006570012024A067B0040068600A0066A00F000E8
:10066700000614E523540FF54BE54B24E0F59B12E8
:10067700000E809985232912092312000E808E759A
:100687002130759BA0754B00752A00754900120033
:090697000E2202061402061422D0
:10035F0075500075510075291E752200754B00757B
:10036F002A007549007511007B007D307F0012084F
:10037F007875111E7B007D407F0012087875110083
:10038F007B307D507F001208783001031208173040
:10039F000011C20075291E752200754B00752A00C9
:1003AF00752E00E54860E2754800AF26EF3395E003
:1003BF00FEEF7F00FEAD25ED3395E0FCEF2DFFEE58
:1003CF003CFE7550008F51E5518550F012024A04E2
:1003DF0003003004110040041D00A003F200F000E0
:1003EF00000398E523540FF54BE54B24F0F59B12D2
:1003FF00000E809585232AE52A2410F59B12000E06
:10040F00808785232912092312000E020398752174
:10041F0030759BA0754B00752A0075490012000EB0
:08042F00220203980203982247
:1004370075520075530075291E752200754B00759E
:100447002A007549007511007B007D307F00120876
:100457007875111E7B007D407F00120878751100AA
:100467007B307D507F001208783001031208173067
:100477000011C20075291E752200754B00752A00F0
:10048700752E00E54860E2754800AF26EF3395E02A
:10049700FEEF7F00FEAD25ED3395E0FCEF2DFFEE7F
:1004A7003CFE7552008F53E5538552F012024A0401
:1004B700E3003004D8004004F200A004CA00F000B2
:1004C700000470634BFFE54B44F0F59B12000E8070
:1004D7009885232912092312000E808D852349E56B
:1004E700494460F59B12000E020470752130759B1C
:1004F700A0754900754B00752A0075490012000E5A
:080507002202047002047022BC
:10050F0075540075550075291E752200754B0075C1
:10051F002A007549007511007B007D307F0012089D
:10052F007875111E7B007D407F00120878751100D1
:10053F007B307D507F00120878300103120817308E
:10054F000011C20075291E752200754B00752A0017
:10055F00752E00E54860E2754800AF26EF3395E051
:10056F00FEEF7F00FEAD25ED3395E0FCEF2DFFEEA6
:10057F003CFE7554008F55E5558554F012024A051F
:10058F00B3003005C1004005CD00A005A200F0006A
:10059F00000548E523540FF54BE54B24F0F59B126E
:1005AF00000E809585232AE52A2450F59B12000E14
:1005BF00808785232912092312000E020548752111
:1005CF0030759BA0754B00752A0075490012000EFF
:0805DF00220205480205482232
:10072C0075560075570075291E752200754B00759E
:10073C002A00752E00759BC0120A7730010312082F
:10074C0017300011C20075291E752200754B0075FB
:10075C002A00752E00E54860E2754800AF26EF339D
:10076C0095E0FEEF7F00FEAD25ED3395E0FCEF2D1F
:10077C00FFEE3CFE7556008F57E5578556F012027A
:10078C004A079500B000000747752130120AA3757F
:10079C009BA0754B00752A0075490012000E228033
:0407AC009A80982275
:1002770075580075590075291E752200754B007554
:100287002A007511007B007D307F001208787511F8
:100297001E7B007D407F001208787511007B307D42
:1002A700507F00120878300103120817300011C27E
:1002B7000075291E752200754B00752A00752E00E2
:1002C700E54860E2754800AF26EF3395E0FEEF7F23
:1002D70000FEAD25ED3395E0FCEF2DFFEE3CFE75FE
:1002E70058008F59E5598558F012024A031C00201F
:1002F700032A003003390040034500A0030B00F038
:10030700000002ADE523540FF54BE54B24F0F59BB8
:1003170012000E809185232EE52E2490F59B120066
:100327000E808385232AE52A2480F59B12000E027E
:1003370002AD85232912092312000E0202AD752191
:1003470030759BA0754B00752A00752E0012000EA4
:08035700220202AD0202AD22F8
:1008D200751200751300751400120A4953B3EF43E1
:1008E200B41012000EE52112022409023009073168
:1008F200090C32091133091634091B35000008E7C7
:100902001207B080E01205E780DB12035F80D61287
:10091200043780D112072C80CC12050F80C780C506
:0109220022B2
:0300230002004692
:10004600C0E0C083C082C0D075D0182098030201DA
:1000560077C298E52760030200F0C3E54A648094FE
:10006600835036054AAB45AA46A947AF4AEF3395B2
:10007600E0FE8F828E83E599120202AB45AA46A95D
:10008600477582017583001201C3FFEF645A70033E
:10009600020177754A00020177AF99AB45AA46A9D6
:1000A60047758204758300EF120202FF8F28AB4565
:1000B600AA46A9477582017583001201C3FFEFB4F2
:1000C6005A22AB45AA46A9477582037583001201D9
:1000D600C3FFEF14F52774052547F547E43546F5C4
:1000E60046020177754A000201771527AB45054799
:1000F600E547AA467002054614F9E5991201F0E5AE
:1001060027706E754A00754801AB45E5471547707F
:1001160002154614F9AA461201AAFF8F23AB45E53C
:100126004715477002154614F9AA461201AAFF8F11
:100136002474FF2547F54774FF3546F546AB45E57C
:100146004715477002154614F9AA461201AAFF8FF1
:1001560025AB45E54715477002154614F9AA461220
:1001660001AAFF8F267B007A0079318B458A468962
:1001760047309905C299753001D0D0D082D083D04E
:02018600E03265
:03001B00020003DD
:0100030032CA
:0300430002002692
:10002600C0E0E59A30E003539AFEE59A30E10353C7
:050036009AFDD0E0324C
:03000B000209687F
:10096800C0E0C0D075D000C006C007C28D758CFC31
:10097800758A18E54B601E052DE52D7002052CFFC4
:10098800AE2CD3EF94D0EE648094874008752C0089
:0E099800752D00D201D007D006D0D0D0E032AD
:1006AC000208D2E493A3F8E493A34003F68001F28A
:1006BC0008DFF48029E493A3F85407240CC8C3334F
:1006CC00C4540F4420C8834004F456800146F6DF1E
:1006DC00E4800B01020408102040809009E1E47EC4
:1006EC00019360BCA3FF543F30E509541FFEE49313
:1006FC00A360010ECF54C025E060A840B8E493A3DA
:10070C00FAE493A3F8E493A3C8C582C8CAC583CA04
:10071C00F0A3C8C582C8CAC583CADFE9DEE780BEBC
:010A180000DD
:10018800C2D530F707B2D563F0FF05F030E70CB2FF
:10019800D5F4048463F0FF05F080018430D502F4BF
:0201A80004222F
:1001AA00BB010689828A83E0225002E722BBFE0253
:0901BA00E32289828A83E4932286
:1001C300BB010CE58229F582E5833AF583E02250F1
:1001D30006E92582F8E622BBFE06E92582F8E2223B
:0D01E300E58229F582E5833AF583E4932255
:1001F000BB010689828A83F0225002F722BBFE01EE
:02020000F322E7
:10020200F8BB010DE58229F582E5833AF583E8F032
:10021200225006E92582C8F622BBFE05E92582C8DE
:02022200F222C6
:10022400D083D082F8E4937012740193700DA3A369
:1002340093F8740193F5828883E47374029368607D
:06024400EFA3A3A380DF7D
:10024A00D083D082F8E4937012740193700DA3A343
:10025A0093F8740193F5828883E473740293B5F07A
:0D026A00067403936860E9A3A3A3A380D8E2
:00000001FF
