:03000000020A876A
:0C0A8700787FE4F6D8FD758165020ACE88
:100FD20002320000022D0000012B00C102C101C13A
:100FE20000014E0001360001291E012200012100EC
:100FF200015200C103C104013500014F000131005B
:10100200012A00015000013400034B000037015156
:0E10120000012700012800012C00022F000021
:10110E00759850758921758DFF758BFF438780D239
:10111E008ED2ACD2AB758CFE758A0CD2A9759ADACA
:0E112E00759CE8758E1075AF01D28CD2AF2281
:0410A3008E088F091B
:1010A700750A00750B00750C00750D00C3E50B95EF
:1010B70009E50A9508501FC3E50D947CE50C9400DB
:1010C700500A050DE50D7002050C80EB050BE50BCD
:0610D7007002050A80D63C
:0110DD0022F0
:1010DE00C2C47F407E9C1210A3D2C47F407E9C125D
:1010EE0010A3C2C47F407E9C1210A3D2C47F407E48
:1010FE009C1210A3C2C47F407E9C1210A3D2C422A5
:1011BA0020C402052BE52BC394644005D2C4752BC9
:0211CA00002201
:10106600052EE52E7002052DFFAE2DE4FCFD7B401E
:101076007A9C79007800C3120A1E5006752D0075F9
:101086002E00AE2DAF2EE4FCFD7BB87A8879007871
:0D10960000D3120A1E5003C2C422D2C4228D
:100F78008F0E8D0F8B1075350075995AE53560FC0D
:100F88007535007599A5E53560FC753500759905C9
:100F9800E53560FC753500759982E53560FC753579
:100FA80000850E99E53560FC753500850F99E535A6
:100FB80060FC753500851099E53560FC7535008550
:0A0FC8001199E53560FC7535002233
:0D000E008F61753500856199E53560FC2234
:100D33008F627F5A12000E7FA512000E7F151200DC
:100D43000E7F8212000E7F0012000E7F7012000EC3
:100D53007F0012000E7F0612000E7F0012000E7F2E
:100D63000112000E7F0012000EAF6212000E7F0010
:100D730012000E7F4612000E7F0112000E7FD61264
:100D8300000E7F0012000E7FB412000E7F021200CD
:100D93000E7F3A12000E7F0012000E7F4612000EE5
:0E0DA3007F0112000E7FD612000E7535002261
:100DB1008F637F5A12000E7FA512000E7F1512005D
:100DC1000E7F8212000E7F0012000E7F9012000E25
:100DD1007F0012000E7F0612000E7F0012000E7FB0
:100DE1000112000E7F0012000EAF6312000E7F0190
:100DF10012000E7FF412000E7F0112000E7F81128D
:100E0100000E7F0212000E7FBC12000E7F01120045
:100E11000E7FE512000E7F0112000E7FF412000E0C
:0E0E21007F0112000E7F8112000E7535002237
:100E2F008F647F5A12000E7FA512000E7F151200DD
:100E3F000E7F8212000E7F0012000E7F8012000EB6
:100E4F007F0012000E7F0612000E7F0012000E7F31
:100E5F000112000E7F0012000EAF6412000E7F0110
:100E6F0012000E7FF912000E7F0112000E7FE912A1
:100E7F00000E7F0312000E7F0E12000E7F02120073
:100E8F000E7F4B12000E7F0112000E7FF912000E23
:0E0E9F007F0112000E7FE912000E7535002251
:101194008F657F5A12000E7FA512000E7F04120085
:1011A4000E7F8012000E7F0312000E7F0012000ECD
:0611B400AF6512000E22DF
:10113C007535007599AAE53560FC7535007599BB58
:10114C00E53560FC753500759901E53560FC753544
:0C115C0000759905E53560FC7535002232
:101168007535007599AAE53560FC7535007599BB2C
:10117800E53560FC753500759901E53560FC753518
:0C11880000759901E53560FC753500220A
:10102100E52975F00A120982FFEFC454F0FFE529A2
:1010310075F00A120982AEF0EE2FF512E52275F075
:101041000A120982FFEFC454F0FFE52275F00A127B
:101051000982AEF0EE2FF513851311AB127D407F9F
:0410610000120F78F2
:011065002268
:100C2700C2041522AF22C3EF648094805071152946
:100C3700AF29C3EF64809480401175223B75110082
:100C4700AB297D407F00120F788054755200E5363E
:100C57002403FF120D337F03120DB11210DED203EE
:100C6700759BA07511007B307D407F00120F787552
:100C7700111E7B007D417F00120F787511007B00EC
:100C87007D507F00120F787511007B007D607F001B
:100C9700120F787511007B007D707F00120F78208E
:060CA700030312102122DC
:100EAD00751400751500754E00753600D280D2810F
:100EBD00D286D287753200753300C201C2027552D7
:100ECD0000752A00755000E54F60FC754F00AF2688
:100EDD00EF3395E0FEEF7F00FEAD25ED3395E0FCA1
:100EED00EF2DF515EE3CF514E5158514F0120A5AA3
:100EFD000F05000000000ED485234E752130E54E00
:0F0F0D00B4010475360C227536002280BA80B804
:010F1C0022B2
:100F1D00751600751700D280D281753200753300B9
:100F2D00C201C202755200752A00755000D286D2D8
:100F3D0087E54F60FC754F00AF26EF3395E0FEEF70
:100F4D007F00FEAD25ED3395E0FCEF2DF517EE3C62
:100F5D00F516E5178516F0120A5A0F6F00000000FE
:0A0F6D000F3E8523212280C980C7B2
:010F77002257
:1000460075530075540075291E75220075320075AA
:100056003300C201C202755200752A00755000C2F3
:1000660080D281C286D287E5362403FF120D337F04
:10007600E87E031210A37F03120DB17FE87E031200
:1000860010A3E5362403FF120E2F7FE87E0312101D
:10009600A37511007B307D407F00120F7875111E0D
:1000A6007B007D417F00120F787511007B007D502B
:1000B6007F00120F78300403120C27300311C2039D
:1000C60075291E752200755200752A00755000307C
:1000D6000120E536240BFF120E2F759BE0C201D2DC
:1000E60080E54EB401077F1D120D3380057F1B127C
:1000F6000D333002051210668008E5362403FF1220
:100106000E2FE54F60AF754F00AF26EF3395E0FE3B
:10011600EF7F00FEAD25ED3395E0FCEF2DFFEE3CC5
:10012600FE7553008F54E5548553F0120A5A01ACFC
:10013600001001BD002001A3004101CE00A0014C2A
:1001460000F0000000BB200206E523540FF552E53F
:1001560052601320A010C202C2017F03120E2F7537
:100166009BE1C2808005759BE0D280E5526017C294
:1001760082E54EB401087F1C120D330200BB7F1AC4
:10018600120D330200BBD282E54EB401087F1D1268
:100196000D330200BB7F1B120D330200BB852329E2
:1001A6001210210200BBD2837F03120DB1759B2072
:1001B600C286D2870200BBC2837F0B120DB1759B2C
:1001C60021D286C2870200BB759BA07FE87E031200
:1001D60010A3755200752A007550007532007533EC
:1001E60000C202D286D287D283D282D280D28175D1
:0901F6002130220200BB0200BB13
:0101FF0022DD
:1002000075550075560075291E75220075320075EA
:100210003300C201C202755200752A00755000D227
:1002200080C281D286D287E5362403FF120D337F48
:10023000E87E031210A3E5362403FF120E2F7FE899
:100240007E031210A37511007B307D407F00120FDA
:100250007875111E7B007D417F00120F78751100AB
:100260007B007D507F00120F78300403120C273082
:100270000311C20375291E752200755200752A00EC
:1002800075500030011EE536240BFF120E2F759BB2
:10029000E0C201E54EB401077F1D120D3380057FDA
:1002A0001B120D333002051210668008E536240358
:1002B000FF120E2FE54F60B1754F00AF26EF33955B
:1002C000E0FEEF7F00FEAD25ED3395E0FCEF2DFF66
:1002D000EE3CFE7555008F56E5568555F0120A5ACC
:1002E0000354001003610020034B0041036E00A083
:1002F00002F800F000000269200206E523540FF521
:1003000052E552601120A00EC202C2017F03120EFC
:100310002F759BE18003759BE0E5526017C282E573
:100320004EB401087F1C120D330202697F1A120DB0
:1003300033020269D282E54EB401087F1D120D33EB
:100340000202697F1B120D330202698523291210F4
:1003500021020269D2837F03120DB1759B20020234
:1003600069C2837F0B120DB1759B21020269759BD7
:10037000A07FE87E031210A3755200752A00755005
:1003800000753200753300C202D283D282D280D28D
:0B03900081752130220202690202691F
:01039B00223F
:1007480075570075580075291E7522007552007579
:100758002A00755000D280D281D286D287E536240D
:1007680003FF120D337511007B307D407F00120F9F
:100778007875111E7B007D417F00120F787511007E
:100788007B007D507F00120F787511007B007D6023
:100798007F00120F78300403120C27300311C203B4
:1007A80075291E752200755200752A00753100E5FD
:1007B8004F60E2754F00AF26EF3395E0FEEF7F0004
:1007C800FEAD25ED3395E0FCEF2DFFEE3CFE7557B1
:1007D800008F58E5588557F0120A5A083B0041081F
:1007E8002F0050084400A007F700F00000079DE51F
:1007F80023540FF552E55224F0F59BE5526013E5BA
:100808004EB401077F1C120D33808A7F1A120D33F4
:100818008083E54EB401087F1D120D3302079D7FCA
:100828001B120D3302079D85232AE52A2410F59B08
:1008380002079D85232912102102079D759BA07F21
:10084800E87E031210A3755200752A007550001235
:0C08580011BA7521302202079D02079D95
:010864002271
:10086500755900755A0075291E7522007552007557
:100875002A00755000D280D281D286D287E53624EF
:1008850003FF120D337511007B307D407F00120F81
:100895007875111E7B007D417F00120F7875110060
:1008A5007B007D507F00120F787511007B007D6005
:1008B5007F00120F78300403120C27300311C20396
:1008C50075291E752200755200752A00753100E5DF
:1008D5004F60E2754F00AF26EF3395E0FEEF7F00E6
:1008E500FEAD25ED3395E0FCEF2DFFEE3CFE755991
:1008F500008F5AE55A8559F0120A5A094C004109E8
:10090500550050096100A0091400F0000008BAE57F
:1009150023540FF552E55224F0F59BE5526013E59B
:100925004EB401077F1C120D33808A7F1A120D33D6
:100935008083E54EB401087F1D120D330208BA7F8E
:100945001B120D330208BA8523291210210208BA99
:10095500852350E5504460F59B0208BA759BA07F3E
:10096500E87E031210A3755000755200752A0075B4
:0C0975005000752130220208BA0208BAB6
:010981002253
:100B1300755B00755C0075291E75220075520075A2
:100B23002A00753100D286D287759BC112113C30E1
:100B33000403120C27300311C20375291E7522000A
:100B4300755200752A00753100E54F60E2754F005C
:100B5300AF26EF3395E0FEEF7F00FEAD25ED339535
:100B6300E0FCEF2DFFEE3CFE755B008F5CE55C85E2
:100B73005BF0120A5A0B8000B000000B32121168AE
:100B8300759BC27FE87E031210A3755200752A007D
:0B0B9300755000752130228096809480
:010B9E002234
:1004E000755D00755E0075291E75220075520075D8
:1004F0002A00D280D281D286D287E5362403FF1229
:100500000D337511007B307D407F00120F7875111F
:100510001E7B007D417F00120F787511007B007DEE
:10052000507F00120F787511007B007D607F0012F4
:100530000F787511007B007D707F00120F783004FA
:1005400003120C27300311C20375291E7522007592
:100550005200752A00753100E54F60E2754F00AF1B
:1005600026EF3395E0FEEF7F00FEAD25ED3395E0FD
:10057000FCEF2DFFEE3CFE755D008F5EE55E855D58
:10058000F0120A5A05ED004105E1005005D5006062
:1005900005F600A0059C00F00000053EE523540F81
:1005A000F552E55224F0F59BE5526014E54EB40196
:1005B000077F1C120D3380867F1A120D3302053E11
:1005C000E54EB401087F1D120D3302053E7F1B125C
:1005D0000D3302053E852331E5312490F59B02055C
:1005E0003E85232AE52A2480F59B02053E852329A2
:1005F00012102102053E759BA07FE87E031210A316
:10060000755200752A007531007521302202053EB1
:0306100002053EA2
:0106130022C4
:10061400755F0075600075291E752200755200759E
:100624002A00D280D281D286D287E5362403FF12F3
:100634000D337511007B307D407F00120F787511EA
:100644001E7B007D417F00120F787511007B007DB9
:10065400507F00120F787511007B007D607F0012BF
:100664000F787511007B007D707F00120F783004C5
:1006740003120C27300311C20375291E752200755D
:100684005200752A00753100E54F60E2754F00AFE6
:1006940026EF3395E0FEEF7F00FEAD25ED3395E0C8
:1006A400FCEF2DFFEE3CFE755F008F60E560855F1B
:1006B400F0120A5A0721004107150050070900608B
:1006C400072A00A006D000F000000672E523540FAC
:1006D400F552E55224F0F59BE5526014E54EB40161
:1006E400077F1C120D3380867F1A120D33020672A7
:1006F400E54EB401087F1D120D330206727F1B12F2
:100704000D33020672852331E5312490F59B0206F0
:100714007285232AE52A2470F59B02067285232913
:10072400121021020672759BA07FE87E031210A3AB
:10073400755200752A007531007521302202067247
:0307440002067238
:01074700228F
:100B9F0012110E75BB7075B4FF75B3007594FF75A8
:100BAF009300D286D2871211BAC2C47F107E271249
:100BBF0010A3C2C47F107E271210A3C2C47F107E61
:100BCF00271210A3E521120A340BF7000BFC300C8F
:100BDF0001310C06320C0B330C10340C15350C1A7A
:100BEF00360C1F3700000BD3120EAD80D7120F1D1E
:100BFF0080D212004680CD12074880C81208658047
:100C0F00C3120B1380BE1204E080B912061480B415
:080C1F0012020080AF80AD223B
:0300230002039C39
:10039C00C0E0C083C082C0D075D01820980302047E
:1003AC00CFC298E5276003020446C3E551648094EC
:1003BC008350360551AB4BAA4CA94DAF51EF339539
:1003CC00E0FE8F828E83E5991209FCAB4BAA4CA9F7
:1003DC004D7582017583001209BDFFEF645A7003DD
:1003EC000204CF7551000204CFAF99AB4BAA4CA9B4
:1003FC004D758204758300EF1209FCFF8F28AB4BFF
:10040C00AA4CA94D7582017583001209BDFFEFB48A
:10041C005A22AB4BAA4CA94D758203758300120965
:10042C00BDFFEF14F5277405254DF54DE4354CF55E
:10043C004C0204CF7551000204CF1527AB4B054D70
:10044C00E54DAA4C7002054C14F9E5991209EAE540
:10045C00277070755100754F01AB4BE54D154D7004
:10046C0002154C14F9AA4C1209A4FF8F23AB4BE5CF
:10047C004D154D7002154C14F9AA4C1209A4FF8F9E
:10048C002474FF254DF54D74FF354CF54CAB4BE505
:10049C004D154D7002154C14F9AA4C1209A4FF8F7E
:1004AC0025AB4BE54D154D7002154C14F9AA4C12A9
:1004BC0009A4FF8F267B007A0079378B4B8A4C89F5
:1004CC004DC2C4309905C299753501D0D0D082D0B7
:0404DC0083D0E032B7
:03001B00020003DD
:0100030032CA
:0300430002002692
:10002600C0E0E59A30E003539AFEE59A30E10353C7
:050036009AFDD0E0324C
:03000B00020CAD37
:100CAD00C0E0C0D075D000C006C007C28D758CFCE9
:100CBD00758A181211BAE552601E0530E5307002C2
:100CCD00052FFFAE2FD3EF94D0EE648094874008AC
:100CDD00752F00753000D20430A03AE521643160E3
:100CED0005E521B4372F0533E53370020532FFAE2C
:100CFD0032EFB4E828EEB4032430A00F753204753A
:100D0D00334C755200D202D2018012753200753308
:100D1D0000C2028008753200753300C202D007D0C0
:060D2D0006D0D0D0E03238
:100A9300020B9FE493A3F8E493A34003F68001F2CF
:100AA30008DFF48029E493A3F85407240CC8C33364
:100AB300C4540F4420C8834004F456800146F6DF33
:100AC300E4800B0102040810204080900FD2E47EE2
:100AD300019360BCA3FF543F30E509541FFEE49328
:100AE300A360010ECF54C025E060A840B8E493A3EF
:100AF300FAE493A3F8E493A3C8C582C8CAC583CA1A
:100B0300F0A3C8C582C8CAC583CADFE9DEE780BED1
:0110200000CF
:10098200C2D530F707B2D563F0FF05F030E70CB2FD
:10099200D5F4048463F0FF05F080018430D502F4BD
:0209A20004222D
:1009A400BB010689828A83E0225002E722BBFE0251
:0909B400E32289828A83E4932284
:1009BD00BB010CE58229F582E5833AF583E02250EF
:1009CD0006E92582F8E622BBFE06E92582F8E22239
:0D09DD00E58229F582E5833AF583E4932253
:1009EA00BB010689828A83F0225002F722BBFE01EC
:0209FA00F322E6
:1009FC00F8BB010DE58229F582E5833AF583E8F031
:100A0C00225006E92582C8F622BBFE05E92582C8DC
:020A1C00F222C4
:100A1E00EB9FF5F0EA9E42F0E99D42F0EC6480C84F
:060A2E0064809845F022EF
:100A3400D083D082F8E4937012740193700DA3A351
:100A440093F8740193F5828883E473740293686065
:060A5400EFA3A3A380DF65
:100A5A00D083D082F8E4937012740193700DA3A32B
:100A6A0093F8740193F5828883E473740293B5F062
:0D0A7A00067403936860E9A3A3A3A380D8CA
:00000001FF
